:100000000C94FC000C9419010C9419010C94190126
:100010000C9419010C9419010C9419010C941901F8
:100020000C9419010C9431010C9419010C941901D0
:100030000C9419010C9419010C9419010C941901D8
:100040000C9419010C9419010C9419010C941901C8
:100050000C9419012020D2E5F1F22020EFE0ECFF12
:10006000F2E82020000020CEF8E8E1EAE020EFE00E
:10007000ECFFF2E821200000202020CFE0ECFFF28E
:10008000FC20204F4B2020200000CDE5F220F4E0A2
:10009000E9EBEEE2205441502120000020202020F6
:1000A00020C2FBE1EEF020202020202000008DE087
:1000B000E6EC2E20EBFEE1F3FE20EAEDEF2000005F
:1000C000C041C1A0C242C3A1C4E0C545A8A2C6A305
:1000D000C7A4C8A5C9A6CA4BCBA7CC4DCD48CE4F07
:1000E000CFA8D050D143D254D3A9D4AAD558D6E161
:1000F000D7ABD8ACD9E2DAADDBAEDC62DDAFDEB0D7
:10010000DFB1E061E1B2E2B3E3B4E4E3E565B8B5E1
:10011000E6B6E7B7E8B8E9B9EABAEBBBECBCEDBDC7
:10012000EE6FEFBEF070F163F2BFF379F4E4F578AF
:10013000F6E5F7C0F8C1F9E6FAC2FBC3FCC4FDC599
:10014000FEC6FFC7CDE5F22053442DEAE0F0F2FBF6
:1001500020202020000053442DEAE0F0F2E020ECC3
:10016000EEEBF7E8F2200000D0E0E7ECE5F02053FA
:10017000442DEAE0F0F2FB200000EDE520EEEFF088
:10018000E5E4E5EBE5ED2120202000002046415488
:1001900020206E6F7420666F756E64200000202032
:1001A00020466F756E6420204D42522020200000B2
:1001B0002054797065206F6620662E7379732E2027
:1001C0000000204641543132202D206572726F723A
:1001D000212000002020204641543136202D204F80
:1001E0004B2020200000204641543332202D206532
:1001F00072726F722120000011241FBECFE5D4E07F
:10020000DEBFCDBF11E0A0E6B0E0EEECFDE302C042
:1002100005900D92A232B107D9F712E0A2E2B1E047
:1002200001C01D92AA3BB107E1F70E94EE050C94B4
:10023000E51E0C940000F8941ABA17BA11BA14BA51
:100240008B9889988A988C98889A8FEF8BBB88BBFB
:1002500082BB85BB83E083BF12BE81E089BF9098DB
:1002600008951F920F920FB60F9211242F933F9370
:100270004F935F936F937F938F939F93AF93BF93AE
:10028000EF93FF9312BE80912801843009F44BC094
:1002900080912901882309F042C0909881E08093E1
:1002A0002901809128018823E1F480915C012EE8E6
:1002B00030E002C0359527958A95E2F7209522BF58
:1002C0008091260190912701181619060CF06BC039
:1002D00080912601909127010197909327018093A7
:1002E000260180912801813001F18091280182301E
:1002F00059F180912801833009F43EC0FF91EF91BC
:10030000BF91AF919F918F917F916F915F914F912D
:100310003F912F910F900FBE0F901F901895909ABC
:1003200010922901BECF9098E9CF80915C012BE219
:1003300030E002C0359527958A95E2F7209522BFD7
:1003400082E080932801DACF20915C0180E390E085
:1003500002C0959587952A95E2F7809582BF83E044
:100360008093280180E180932C0110922D0110923E
:100370002B0110922A01C2CF30912C01303170F143
:1003800060912A0170912B018091220190912301AB
:100390006817790760F084E08093280110922501A6
:1003A00010922401ABCF81E080932801A7CF109257
:1003B0002C0180E090E00E94640E80932D018091DA
:1003C0002A0190912B01019690932B0180932A0191
:1003D000909325018093240130912C0140912D01AF
:1003E00047FD14C020915C0188E390E002C0959520
:1003F00087952A95E2F7809582BF30FF03C0440FAE
:1004000040932D013F5F30932C0178CF20915C0108
:1004100080E790E002C0959587952A95E2F7809550
:1004200082BFEBCF2F923F925F926F927F928F921B
:100430009F92AF92BF92CF92DF92EF92FF920F9373
:100440001F93CF93DF9328E833E140E951E0CA01DD
:100450000197F1F721503040D1F7EE24FF244DE50C
:10046000A42E41E0B42E30E6832E30E0932E20E718
:10047000622E27E1722E95E3592EC0E9D1E08DE678
:10048000282E80E0382E82E291E0B7010E94851686
:10049000882309F493C067010894C11CD11C2DB7AF
:1004A0003EB7285030400FB6F8943EBF0FBE2DBF68
:1004B000EDB7FEB73196ADB7BEB71296BC92AE920D
:1004C000119793828282D582C48280912201909179
:1004D0002301978386830E940D1C2DB73EB7285FAA
:1004E0003F4F0FB6F8943EBF0FBE2DBFC5010E940F
:1004F0005A0712BE80915C01D30102C0AA0FBB1F34
:100500008A95E2F7B0932701A09326011092280163
:10051000109229011092250110922401789400E094
:1005200010E0F8940E94FC0D80912801843009F4B9
:100530009EC02091220130912301409124015091CD
:100540002501809128017894833009F439C0852DE4
:100550008A95F1F784993FC0829B14C0F89420EDEE
:1005600037E0CE010197F1F721503040D1F7829B5F
:10057000FECF789420ED37E0CE010197F1F72150BE
:100580003040D1F78399C8C0819BCBCF20ED37E0B5
:10059000CE010197F1F721503040D1F7E114F10479
:1005A00009F038C0CC24DD24F894760182E291E091
:1005B000B7010E948516882309F06DCF90980DC071
:1005C00085E70033180759F10F5F1F4F852D8A9576
:1005D000F1F7849BC1CFF8949098DF91CF911F9150
:1005E0000F91FF90EF90DF90CF90BF90AF909F90D2
:1005F0008F907F906F905F903F902F90089520EDA7
:1006000037E0CE010197F1F721503040D1F7E114E6
:10061000F10451F267010894C108D108C5CFADB704
:10062000BEB718970FB6F894BEBF0FBEADBFEDB7FB
:10063000FEB731961296BC92AE9211979382828247
:10064000D582C482241B350B378326830E940D1C60
:100650002DB73EB7285F3F4F0FB6F8943EBF0FBE91
:100660002DBFC5010E945A0700E010E070CF00D0F6
:1006700000D000D0EDB7FEB73196ADB7BEB7129639
:10068000BC92AE92119733822282D582C4820E949C
:100690000D1C2DB73EB72A5F3F4F0FB6F8943EBFF3
:1006A0000FBE2DBFC5010E945A0780912201909173
:1006B0002301449708F439C064EF71E080E49CE9B9
:1006C0000197F1F784997ACF40E050E0829B12C005
:1006D00020ED37E0CE010197F1F721503040D1F7FE
:1006E000829BFECF20ED37E0CE010197F1F721503C
:1006F0003040D1F783991CC0819981CF4F5F5F4F04
:100700004617570708F050CF80E49CE90197F1F7AE
:10071000849BDCCF909861CF20ED37E0CE0101972C
:10072000F1F721503040D1F73FCF68EC70E0C6CFF1
:1007300020ED37E0CE010197F1F721503040D1F79D
:1007400033CF2F923F924F925F926F927F928F9210
:100750009F92AF92BF92CF92DF92EF92FF920F9350
:100760001F93CF93DF9384E590E00E943C081FEF36
:10077000442455243201BB24CDE5D1E059E7252E90
:1007800050E0352EC301B2012FEF30E040E050E0E1
:100790000E94EB1B822E2117E9F000D000D000D080
:1007A000EDB7FEB73196ADB7BEB71296DC93CE93D8
:1007B000119733822282248315820E940D1C8DB7EB
:1007C0009EB706960FB6F8949EBF0FBE8DBFCE01A2
:1007D0000E94CB07EE24FF2487014B2D4E0DC8014C
:1007E000B7010E947E0E0E94FC0D0894E11CF11CD2
:1007F000011D111D90E0E91690E0F90692E009074D
:1008000090E0190751F7CC24DD2476010FC008943D
:10081000C11CD11CE11CF11C90E0C91690E0D90666
:1008200092E0E90690E0F90609F456C09B2C9C0C76
:10083000C701B6010E94640EA82E0E94FC0DA914E7
:1008400031F386E690E00E943C08ADB7BEB71A9738
:100850000FB6F894BEBF0FBEADBFEDB7FEB7319671
:100860000DE511E012961C930E9311978AE890E023
:1008700093838283D582C48296821782A086118652
:100880000E940D1C8DB79EB70A960FB6F8949EBFB6
:100890000FBE8DBFC8010E94CB072FEF3FEF40E98D
:1008A00051E0CA010197F1F721503040D1F70E9481
:1008B0008906DF91CF911F910F91FF90EF90DF900C
:1008C000CF90BF90AF909F908F907F906F905F90F0
:1008D0004F903F902F90089584E690E0A0E0B0E024
:1008E000480E591E6A1E7B1EB394182D90E04916BF
:1008F00094E6590690E0690690E0790609F042CF47
:1009000088E790E00E943C088FE990E00E94CB07C6
:1009100020E335E740E951E0CA010197F1F72150A2
:100920003040D1F7C4CF2F923F924F925F926F9297
:100930007F929F92AF92BF92CF92DF92EF92FF92FF
:100940000F931F93DF93CF93CDB7DEB72B970FB6DF
:10095000F894DEBF0FBECDBF0E944919882309F469
:100960000FC181E090E090932F0180932E0121E050
:10097000A22EB12C992493E0292E312C2C0E3D1E51
:1009800082E0482E512C4C0E5D1E3E010894611CE5
:10099000711C00E9C02E01E0D02E8DE591E0BE0172
:1009A0006C5F7F4FAE01485F5F4F91018301720121
:1009B0000E945F14882309F092C08B81882309F07C
:1009C00078C08DB79EB708970FB6F8949EBF0FBE3C
:1009D0008DBFEDB7FEB731968DE591E0ADB7BEB7EF
:1009E00012969C938E931197A0EAB0E0B383A283F2
:1009F00094821582B782A6820E940D1CEDB7FEB7C5
:100A000038960FB6F894FEBF0FBEEDBF8DE591E0AE
:100A10000E945A0720ED37E0C6010197F1F72150F7
:100A20003040D1F783996FC081997FC0849BFACF02
:100A30008B81882309F458C0F3E1F91540F0E92DC2
:100A4000F0E0EE0FFF1FE25DFE4FB182A08287FD56
:100A50007EC0939493E1991508F44BC0092D10E0E2
:100A6000000F111FF801E25DFE4FA1E0B0E0B1837D
:100A7000A0836C817D818E819F810E940C1AF80178
:100A8000E25DFE4F80819181029708F46CC001E025
:100A900010E07F0108C00F5F1F4FF7018081918137
:100AA0000817190720F40E94A3188823A1F75801FA
:100AB00074CF8DB79EB708970FB6F8949EBF0FBE40
:100AC0008DBFEDB7FEB731968DE591E0ADB7BEB7FE
:100AD00012969C938E931197A1EBB0E087CF8DE592
:100AE00091E00E94CB0769CF0E9412028501580154
:100AF00054CF6C817D818E819F810E940C1A01E010
:100B000010E058014ACF829B35C01AE0F12E8501D2
:100B100006C0015010408A2D801B8F1540F60E94A0
:100B2000FD178823B1F7580138CF829B20C0BAE067
:100B3000FB2E85010E94A318882309F4B8CF0F5F0C
:100B40001F4F802F8A198F15A8F3580126CF99209F
:100B5000A1F09A946C817D818E819F810E940C1AF4
:100B600083E18915B0F501E010E0580116CFFF24AC
:100B7000F394DFCFFF24F394CACF00E010E079CFE5
:100B80008AE890E00E943C088FE990E00E94CB0741
:100B900080E29EE420E931E0F9013197F1F7019715
:100BA000D9F72B960FB6F894DEBF0FBECDBFCF910D
:100BB000DF911F910F91FF90EF90DF90CF90BF904A
:100BC000AF909F907F906F905F904F903F902F904D
:100BD0000895092D10E0000F111F51CF1F93CF93DF
:100BE000DF930E941B010E94ED0D0E94F7060E94F8
:100BF0004E0C882311F00E94241110E0C0E9D1E0CE
:100C00008CE990E00E943C08112309F43FC01130A8
:100C100009F461C0123009F454C0133009F040C027
:100C2000ADE5B1E0E2EFF0E081E101900D9281509D
:100C3000E1F78DE591E00E94CB0728E833E1CE0192
:100C40000197F1F721503040D1F783994EC0819937
:100C500052C0849BFACF112379F1113009F451C0AD
:100C6000123009F44EC0133009F450C0143041F66C
:100C70000E944E0C882309F4C3CF0E9424118CE9F2
:100C800090E00E943C08112309F0C1CFADE5B1E02E
:100C9000E2ECF0E080E101900D928150E1F7C9CFE4
:100CA000143039F6ADE5B1E0E3E0F1E081E1019027
:100CB0000D928150E1F7BDCF10925C010E94930428
:100CC0009FCFADE5B1E0E2EEF0E080E101900D9262
:100CD0008150E1F7AECFADE5B1E0E2EDF0E080E1CB
:100CE00001900D928150E1F7A4CF1150153008F416
:100CF00087CF14E085CF1F5F153008F481CF10E057
:100D00007FCF10935C010E9493047ACF0E94A103CD
:100D100077CF8EEA90E00E94AD08839906C0819952
:100D200004C0829902C0849BF8CF0895AD98AC9816
:100D3000AB98AA98AE9A45B3282F26952695269566
:100D400030E021703070220F331F22953295307FB2
:100D50003227207F3227422B45BB45B3282F2695CB
:100D6000269530E02170307022953295307F322701
:100D7000207F3227422B45BB45B3282F269530E0F4
:100D800021703070220F331F220F331F220F331FA9
:100D9000422B45BB25B390E081709070880F991F5E
:100DA000880F991F282B25BB80EB94E0FC0131971D
:100DB000F1F7AE980197F1F708951F93182FAF9AA6
:100DC00082958F700E949606812F8F700E949606E2
:100DD0001F9108951F93182FAF9882958F700E94CE
:100DE0009606812F8F700E9496061F910895A79AEC
:100DF000A69AA59AA49AA39AA29A28EB3BE040E966
:100E000051E0CA010197F1F721503040D1F7AF9876
:100E100083E00E94960628EB3BE040E951E0CA01DE
:100E20000197F1F721503040D1F783E00E949606F8
:100E300080ED97E00197F1F783E00E94960682E04B
:100E40000E9496068CE20E94EA0620ED37E040E917
:100E500051E0CA010197F1F721503040D1F788E005
:100E60000E94EA0620ED37E040E951E0CA0101970F
:100E7000F1F721503040D1F781E00E94EA0620EDE1
:100E800037E040E951E0CA010197F1F721503040C5
:100E9000D1F786E00E94EA068CE00E94EA0620ED87
:100EA00037E040E951E0CA010197F1F721503040A5
:100EB000D1F70895AF92BF92CF92DF92EF92FF9257
:100EC0000F931F93DF93CF93CDB7DEB760970FB625
:100ED000F894DEBF0FBECDBFE82E192F80E80E9428
:100EE000EA0680E293E00197F1F76E010894C11CD5
:100EF000D11C8E2D912F9C01A901D601E1E1AE2ECE
:100F0000B12CAC0EBD1EFA0120812C9380E090E044
:100F100004C002968438910559F0FC01E054FF4F5B
:100F2000E4912E17B1F78F539F4FFC0184918C935E
:100F30004F5F5F4F1196AA15BB0529F78E2D912F94
:100F40009C018901F02EFE18F80180818823F9F0B8
:100F5000F60181916F010E94DD060F5F1F4FAC14F7
:100F6000BD0481F760960FB6F894DEBF0FBECDBF0B
:100F7000CF91DF911F910F91FF90EF90DF90CF9075
:100F8000BF90AF90089580E20E94DD06F394FFE0E9
:100F9000FF15C8F7E7CFAF92BF92CF92DF92EF92E3
:100FA000FF920F931F93DF93CF93CDB7DEB7609778
:100FB0000FB6F894DEBF0FBECDBFE82E192F88EA1A
:100FC0000E94EA0680E293E00197F1F76E0108942F
:100FD000C11CD11C8E2D912F9C01A901D601F1E1DC
:100FE000AF2EB12CAC0EBD1EFA0120812C9380E0F7
:100FF00090E004C002968438910559F0FC01E05459
:10100000FF4FE4912E17B1F78F539F4FFC0184914E
:101010008C934F5F5F4F1196AA15BB0529F78E2D54
:10102000912F9C018901F02EFE18F8018081882300
:10103000F9F0F60181916F010E94DD060F5F1F4FED
:10104000AC14BD0481F760960FB6F894DEBF0FBEF6
:10105000CDBFCF91DF911F910F91FF90EF90DF9067
:10106000CF90BF90AF90089580E20E94DD06F39488
:10107000FFE0FF15C8F7E7CFAF92BF92CF92DF92A4
:10108000EF92FF920F931F93DF93CF93CDB7DEB70D
:1010900060970FB6F894DEBF0FBECDBFE82E192FB4
:1010A00080E80E94EA0680E293E00197F1F76E0182
:1010B0000894C11CD11C8E2D912FFC01AF01D601CB
:1010C00001E1A02EB12CAC0EBD1EFA0124912C938F
:1010D00080E090E004C002968438910559F0FC014C
:1010E000E054FF4FE4912E17B1F78F539F4FFC014F
:1010F00084918C934F5F5F4F1196AA15BB0529F71A
:101100008E2D912FFC018F01F02EFE18F801849195
:101110008823F9F0F60181916F010E94DD060F5FCF
:101120001F4FAC14BD0481F760960FB6F894DEBF74
:101130000FBECDBFCF91DF911F910F91FF90EF9028
:10114000DF90CF90BF90AF90089580E20E94DD06BF
:10115000F394FFE0FF15C8F7E7CFAF92BF92CF92AD
:10116000DF92EF92FF920F931F93DF93CF93CDB750
:10117000DEB760970FB6F894DEBF0FBECDBFE82E86
:10118000192F88EA0E94EA0680E293E00197F1F7BE
:101190006E010894C11CD11C8E2D912FFC01AF0152
:1011A000D60181E1A82EB12CAC0EBD1EFA0124910E
:1011B0002C9380E090E004C002968438910559F0A9
:1011C000FC01E054FF4FE4912E17B1F78F539F4F6E
:1011D000FC0184918C934F5F5F4F1196AA15BB055C
:1011E00029F78E2D912FFC018F01F02EFE18F801AA
:1011F00084918823F9F0F60181916F010E94DD0648
:101200000F5F1F4FAC14BD0481F760960FB6F894C2
:10121000DEBF0FBECDBFCF91DF911F910F91FF9029
:10122000EF90DF90CF90BF90AF90089580E20E9442
:10123000DD06F394FFE0FF15C8F7E7CF0F931F9388
:10124000CF93DF93EC01342F6F5F641B61F140E0BB
:1012500050E0A0E0B0E00FE010E0232F2A0F822F33
:10126000869586958695F801E81BF109EC0FFD1F20
:10127000808190E0277002C0959587952A95E2F7C6
:10128000817090700A2E02C0880F991F0A94E2F7AD
:10129000482B592B1196A61700F3CA01DF91CF9165
:1012A0001F910F91089540E050E0F7CFCF92DF9269
:1012B000EF920F93DF93CF9300D000D00F92CDB772
:1012C000DEB7982FD6018FEF8FB9779BFECF8FB106
:1012D0008FEF8FB9779BFECF8FB199830A832B83D2
:1012E0004C836D83FE01319620E0BE016A5F7F4F23
:1012F00049E030813FB9779BFECF8FB190E001C0CC
:10130000330F220F822F832787FD24279F5F98307A
:10131000B9F73196E617F70761F7220F21602FB969
:10132000779BFECF8FB120E030E04FEF95E34FB9D0
:10133000779BFECF8FB187FF0BC0892F8A95F1F77E
:101340002F5F3F4F8FEF2F3F380789F780E01FC097
:101350008C932F5F3F4FD1F34E2D50E0423051051B
:1013600080F021E030E09FEF9FB9779BFECF8FB1F7
:10137000FD01E20FF31F80832F5F3F4F24173507D6
:1013800098F38FEF8FB9779BFECF8FB181E00F90ED
:101390000F900F900F900F90CF91DF910F91EF90E2
:1013A000DF90CF900895FC0180911B0190911C016A
:1013B00080509240A0F48FEF8FB9779BFECF8FB112
:1013C000808380911B0190911C01019690931C01D8
:1013D00080931B018050924021F081E0089580E0CD
:1013E00008958FEF8FB9779BFECF8FB18FEF8FB9B5
:1013F000779BFECF8FB181E008953F924F925F922D
:101400006F927F928F929F92AF92BF92CF92DF9214
:10141000EF92FF920F931F93DF93CF9300D000D0F2
:10142000CDB7DEB73B014C012A01322E2DB73EB7B6
:101430003C832B8380915601843039F039E0660C6F
:10144000771C881C991C3A95D1F70F928DB79EB7DF
:1014500001969A8389835527492D382D272D7401AC
:1014600000271127A92CBB24CC24DD2481E5662D7F
:10147000422F2E2D0A2DEE24E394C980DA800E949B
:1014800056098823E9F0E981FA8180818823C1F433
:101490008FEF8FB9779BFECF8FB120E030E09FEFC9
:1014A00045E39FB9779BFECF8FB18E3F39F1842FF3
:1014B0008A95F1F72F5F3F4FFFEF2F3F3F0789F7E7
:1014C00080E02B813C810FB6F8943EBF0FBE2DBF4C
:1014D0000F900F900F900F90CF91DF911F910F9170
:1014E000FF90EF90DF90CF90BF90AF909F908F9044
:1014F0007F906F905F904F903F90089580E090E0D4
:101500003FEF3FB9779BFECF2FB13320C1F08F3F24
:10151000910509F018F4F20121932F010196F2E0F0
:1015200080309F0771F78FEF8FB9779BFECF8FB118
:101530008FEF8FB9779BFECF8FB181E0C2CF8F3F06
:10154000910561F358F3E7CF2F923F924F925F924C
:101550006F927F928F929F92AF92BF92CF92DF92C3
:10156000EF92FF920F931F93DF93CF93CDB7DEB728
:101570003B014C012DB63EB680915601843039F0C6
:1015800079E0660C771C881C991C7A95D1F70F922C
:101590004DB65EB60894411C511C5527492D382D77
:1015A000272D740100271127A92CBB24CC24DD246E
:1015B00081E5662D422F2E2D0A2DEE24E394620143
:1015C0000E9456098823E1F0F20180818823C1F44A
:1015D0008FEF8FB9779BFECF8FB120E030E04FEFD8
:1015E00095E34FB9779BFECF8FB18E3F11F1892FD5
:1015F0008A95F1F72F5F3F4FFFEF2F3F3F0789F7A6
:1016000080E00FB6F8943EBE0FBE2DBECF91DF91A5
:101610001F910F91FF90EF90DF90CF90BF90AF9010
:101620009F908F907F906F905F904F903F902F9002
:10163000089510921C0110921B0181E0E2CF8F925D
:101640009F92AF92BF92CF92DF92EF92FF920F9351
:101650001F93DF93CF93CDB7DEB760970FB6F894A3
:10166000DEBF0FBECDBF4C01ADB6BEB60F92CDB63C
:10167000DEB60894C11CD11C89E460E040E020E0A3
:1016800000E0EE24E3940E945609882371F080E084
:1016900090E03FEF3FB9779BFECF2FB12F3FF1F4A2
:1016A00001962FEF8F3F9207A9F780E00FB6F894CD
:1016B000BEBE0FBEADBE60960FB6F894DEBF0FBEC5
:1016C000CDBFCF91DF911F910F91FF90EF90DF90F1
:1016D000CF90BF90AF909F908F9008952E3F09F4C8
:1016E000ACC0298321E030E06E010894C11CD11CFC
:1016F000F601E20FF31F9FEF9FB9779BFECF8FB1EB
:1017000081932F5F3F4F20313105B0F38091560117
:10171000843009F495C08E81482F50E000E010E03D
:1017200020E030E0C90187709070BA0102C0759561
:1017300067958A95E2F7CB0181709070022E02C006
:10174000880F991F0A94E2F7082B192B2F5F3F4F40
:101750002430310539F7A0E0B0E04EE350E06FE00F
:1017600070E0842F869586958695FB01E81BF1092C
:10177000EC0DFD1D808190E09A012770307002C051
:10178000959587952A95E2F7817090704E53504059
:10179000042E02C0880F991F0A94E2F7A82BB92BD8
:1017A000415C5F4F4A345105E1F660E070E04FE282
:1017B00050E0EFE0EE2EF12C842F869586958695ED
:1017C000F701E81BF109EC0DFD1D808190E09A0105
:1017D0002770307002C0959587952A95E2F7817041
:1017E00090704F525040042E02C0880F991F0A94E7
:1017F000E2F7682B792B405D5F4F42335105E1F6EC
:10180000CD01A0E0B0E00196A11DB11D6E5F7F4F3C
:1018100004C0880F991FAA1FBB1F6A95D2F704C086
:10182000880F991FAA1FBB1F0A95D2F7F401808366
:101830009183A283B38381E039CF20E030E054CF9D
:1018400060E070E040E350E0AFE0B0E0842F8695C8
:1018500086958695FD01E81BF109EC0DFD1D808143
:1018600090E09A012770307002C0959587952A956F
:10187000E2F78170907040535040042E02C0880FF0
:10188000991F0A94E2F7682B792B4F5C5F4F46341F
:101890005105E1F6CB01A0E0B0E0C8CF8F929F9256
:1018A000AF92BF92CF92DF92EF92FF920F931F936E
:1018B000DF93CF9300D000D0CDB7DEB78DB69EB604
:1018C00084E191E00E945A0784E191E00E94CB07F5
:1018D000BC9ABD9ABF9ABE9820E137E240E951E038
:1018E000CA010197F1F721503040D1F7C49A28E896
:1018F00033E140E951E0CA010197F1F7215030404E
:10190000D1F7C59A20E040EA5FE0C79ACA01019783
:10191000F1F7C798CA010197F1F72F5F2A3FA9F79E
:10192000C49880E58DB981E08EB928EE33E040E9B6
:1019300051E0CA010197F1F721503040D1F700D0B2
:1019400000D00F92ADB6BEB60894A11CB11C1A2DE2
:10195000FB2C80E460E040E020E000E0EE24E39433
:1019600065010E945609882321F0D5018C918130B0
:1019700039F184E491E00E943C0820E335E740E936
:1019800051E0CA010197F1F721503040D1F70E9490
:10199000890680E00FB6F8949EBE0FBE8DBE0F90F4
:1019A0000F900F900F90CF91DF911F910F91FF90AB
:1019B000EF90DF90CF90BF90AF909F908F90089561
:1019C0001092560188E46AEA41E020E000E055E028
:1019D000E52E65010E945609882329F0F5018081D2
:1019E000813009F48DC081E460E040E020E000E057
:1019F000EE24E394C12EDF2C0E945609882399F32C
:101A0000F5018081882379F780915601813019F0A2
:101A100082E08093560180E560E040E022E000E053
:101A2000EE24E394C12EDF2C0E94560980915601CA
:101A3000843009F457C019821A821B821C82CE019D
:101A400001960E941F0B882399F488E691E00E947A
:101A50003C088AE791E00E94AD0820E335E740E9C1
:101A600051E0CA010197F1F721503040D1F78FCFF3
:101A700000D000D000D0EDB7FEB731960DE511E0F3
:101A8000ADB7BEB712961C930E93119785E191E006
:101A90009383828389819A81AB81BC8124E1B6954D
:101AA000A795979587952A95D1F7958384830E946A
:101AB0000D1CEDB7FEB736960FB6F894FEBF0FBEFD
:101AC000EDBF88E691E00E943C08C8010E94CB0768
:101AD00020E335E740E951E0CA010197F1F72150D1
:101AE0003040D1F780E090E02FEF2FB9779BFECF09
:101AF0003FB10196F4E080309F07B9F781E04ACF0B
:101B000083818F70813019F484818A3A79F086E577
:101B100091E00E943C0820E335E740E951E0CA012A
:101B20000197F1F721503040D1F731CF87E760E0DE
:101B300040E020E000E0EE24E394C12EDF2C0E9480
:101B40005609882349F1D5018C91823028F581E42A
:101B500060E040E020E000E4EE24E394C12EDF2CBE
:101B60000E945609882311F3F50180818823F1F63C
:101B70008AE760E040E020E000E035E0E32E0E94EC
:101B800056098823C1F0D50111968C9186FF21C09A
:101B900084E0809356013FCF86E591E00E943C08A7
:101BA00020E335E740E951E0CA010197F1F7215000
:101BB0003040D1F7ECCE86E591E00E943C0880E30E
:101BC00095E720E931E0F9013197F1F70197D9F76D
:101BD000DECE83E0809356011ECF8D9A8F9A8E9A27
:101BE000A09A8FEF8ABBA19A87B3807F87BB959A13
:101BF000979A969AA89A0895979800000000959849
:101C00000000000000000000979A00000000959A74
:101C100008950F931F9327B3207F27BBA89A6BBB10
:101C2000A99855B38C01222733270170000F052B8B
:101C300005BB9598672F782F892F99276BBBA9989B
:101C4000442309F4A99A979800000000A89800007E
:101C5000000086B3A89A979A979A959A8F701F91C9
:101C60000F910895EF92FF920F931F93A89A37B3A5
:101C70003F6037BB6BBBA99835B37C0100271127A8
:101C800051E0E522EE0CE32AE5BA9598000096981B
:101C90000000672F782F892F99276BBBA9982223E3
:101CA00009F4A99A88B3807F88BB88B34F70842BCE
:101CB00088BB979800000000969A979A959A1F9172
:101CC0000F91FF90EF900895DF92EF92FF920F93A4
:101CD0001F937B018C0140E00E94090ED82ED29404
:101CE000F0EFDF22C801B70141E00E94090E8D2903
:101CF0001F910F91FF90EF90DF900895DF92EF9288
:101D0000FF920F931F937B018C01D42E42954F704D
:101D100020E00E94320E8FE0D822C801B7014D2D7D
:101D200021E00E94320E1F910F91FF90EF90DF9003
:101D30000895EF92FF920F931F937B018C01809186
:101D4000570190915801A0915901B0915A01E80EA4
:101D5000F91E0A1F1B1F5527412F302F2F2D809151
:101D60001E0190911F01A0912001B091210128171F
:101D700039074A075B0701F120931E0130931F01C9
:101D80004093200150932101BA01A90176956795EE
:101D90005795479520E0D801C7019170A070B070A9
:101DA0008F3F9105A105B105A1F098F0CB01BA01D3
:101DB00046E751E00E94FD09F701F070EA58FE4F36
:101DC000608170E080E090E01F910F91FF90EF90B4
:101DD000089521E0EBCFAF92BF92CF92DF92EF92C6
:101DE000FF920F931F935B016C016D5F7F4F8F4FCD
:101DF0009F4F0E94990EEE24F62E072F182FC60132
:101E0000B5016E5F7F4F8F4F9F4F0E94990EE62A5C
:101E1000F72A082B192B102F0F2DFE2CEE24C601AC
:101E2000B5016F5F7F4F8F4F9F4F0E94990EE62A3B
:101E3000F72A082B192B102F0F2DFE2CEE24C6018C
:101E4000B5010E94990E9B01AC012E293F29402B20
:101E5000512BB901CA011F910F91FF90EF90DF90B4
:101E6000CF90BF90AF900895AF92BF92CF92DF9284
:101E7000EF92FF920F931F935B016C016F5F7F4F97
:101E80008F4F9F4F0E94990EEE24F62E072F182F8A
:101E9000C601B5010E94990E9B01AC012E293F2974
:101EA000402B512BB901CA011F910F91FF90EF9068
:101EB000DF90CF90BF90AF9008952F923F924F92B6
:101EC0005F926F927F928F929F92AF92BF92CF92CA
:101ED000DF92EF92FF920F931F93CF93DF93EC016A
:101EE0008C819D81AE81BF818097A109B1098C83CE
:101EF0009D83AE83BF83288939894A895B8982178C
:101F00009307A407B50708F0B4C0288139814A8136
:101F10005B818091B6029091B702A091B802B09116
:101F2000B902281739074A075B0709F4B6C02884A5
:101F300039844A845B8437C0EE24FF248701609192
:101F4000A2027091A3028091A4029091A502209117
:101F500082023091830240918402509185020E9456
:101F6000CC1BE60EF71E081F191FC801B7010E94FF
:101F7000340F7B018C01DC01CB010397A109B1096E
:101F8000855F9F4FA040B04008F087C08C859D853D
:101F9000AE85BF85E816F9060A071B0779F0C70169
:101FA000D8011C012D0180915B01813029F682014D
:101FB0007101EE0CFF1C001F111FC1CFD201C10126
:101FC0000397A109B109855F9F4FA040B04008F079
:101FD00064C02C863D864E865F8660907A02709043
:101FE0007B0280907C0290907D02A090A202B09033
:101FF000A302C090A402D090A5028EEF9FEFAFEF96
:10200000BFEF280E391E4A1E5B1EC201B101A4019A
:1020100093010E94CC1B9B01AC01609176027091F0
:1020200077028091780290917902620F731F841F6A
:10203000951FA60195010E94CC1B7B018C01688B2A
:10204000798B8A8B9B8BC601B501A40193010E94F9
:10205000CC1B6E0D7F1D801F911F6C8B7D8B8E8B1B
:102060009F8B60527040804090406C837D838E8354
:102070009F8381E0DF91CF911F910F91FF90EF90AF
:10208000DF90CF90BF90AF909F908F907F906F9098
:102090005F904F903F902F90089580E0EBCF6F922C
:1020A0007F928F929F92AF92BF92CF92DF92EF92E8
:1020B000FF920F931F93CF93DF93EC018C819D814F
:1020C000AE81BF818096A11DB11D8C839D83AE839F
:1020D000BF832C893D894E895F8982179307A407A6
:1020E000B50708F4A1C0288139814A815B818091BC
:1020F000B6029091B702A091B802B091B902281728
:1021000039074A075B0721F080915B01813011F0AC
:1021100080E08BC06091A2027091A3028091A40222
:102120009091A50220918202309183024091840215
:10213000509185020E94CC1B9B01AC016C857D8572
:102140008E859F85660F771F881F991F620F731FEB
:10215000841F951F0E94340F9B01AC01611571050E
:1021600081059105A9F28091AA029091AB02A091FC
:10217000AC02B091AD020296A11DB11D281739071E
:102180004A075B0728F6283F8FEF380780E04807AB
:1021900080E0580708F0BCCF2C873D874E875F87CB
:1021A00060907A0270907B0280907C0290907D0219
:1021B000A090A202B090A302C090A402D090A50269
:1021C0002250304040405040CA01B901A40193015F
:1021D0000E94CC1B9B01AC0160917602709177024A
:1021E0008091780290917902620F731F841F951F6E
:1021F000A60195010E94CC1B7B018C016C837D8321
:102200008E839F83688B798B8A8B9B8BC601B501EC
:10221000A40193010E94CC1B6E0D7F1D801F911F96
:102220006C8B7D8B8E8B9F8B81E0DF91CF911F918B
:102230000F91FF90EF90DF90CF90BF90AF909F9065
:102240008F907F906F900895AF92BF92CF92DF9260
:10225000EF92FF920F931F93DF93CF9300D000D0A4
:10226000CDB7DEB78DE191E00E945A078DE191E094
:102270000E94CB078FEF9FEFAFEFBFEF80931E0160
:1022800090931F01A0932001B09321011092570158
:10229000109258011092590110925A0160E070E0BA
:1022A00080E090E00E94990E6B3E61F1693E51F131
:1022B0006EEF71E080E090E00E94990E6535710547
:1022C0008105910509F459C28CE891E00E94AD089E
:1022D00020E533EC40E951E0CA010197F1F72150C4
:1022E0003040D1F780E00F900F900F900F90CF917A
:1022F000DF911F910F91FF90EF90DF90CF90BF90F3
:10230000AF9008956EEF71E080E090E00E94990E2A
:10231000653571058105910509F422C28CE891E0CB
:102320000E94AD0820E533EC40E951E0CA01019775
:10233000F1F721503040D1F78FEF9FEFAFEFBFEFB4
:1023400080931E0190931F01A0932001B09321015F
:102350006DE070E080E090E00E94990E60937A0258
:1023600070937B0280937C0290937D026BE070E01F
:1023700080E090E00E94340F6093A2027093A30269
:102380008093A4029093A5026EE070E080E090E05C
:102390000E94340F609382027093830280938402C0
:1023A0009093850261E170E080E090E00E94340F3C
:1023B0002091A2023091A3024091A4025091A50263
:1023C00079018A010894E108F10801091109660FF1
:1023D000771F881F991F660F771F881F991F660F29
:1023E000771F881F991F660F771F881F991F660F19
:1023F000771F881F991FE60EF71E081F191FC801B7
:10240000B7010E94EB1BCA01B9010E94131B0E9475
:10241000D41A0E94E71A6093AE027093AF028093C1
:10242000B0029093B10266E170E080E090E00E941B
:10243000340F609386027093870280938802909392
:102440008902611571058105910509F471C163E186
:1024500070E080E090E00E94340F7B018C016115F8
:1024600071058105910509F472C160E170E080E0B9
:1024700090E00E94990E2091AE023091AF024091FF
:10248000B0025091B102A0908202B0908302C0903D
:102490008402D0908502E21AF30A040B150BEA18A5
:1024A000FB080C091D09209186023091870240919A
:1024B0008802509189020E94CC1BE61AF70A080B89
:1024C000190BE092A602F092A7020093A8021093C3
:1024D000A90220917A0230917B0240917C025091B6
:1024E0007D02C801B7010E94EB1BCA01B9010E941D
:1024F000131B0E94501B0E94E71A6093AA0270935C
:10250000AB028093AC029093AD0260E170E080E09A
:1025100090E00E94990EE090AE02F090AF02009120
:10252000B0021091B1022091820230918302409159
:10253000840250918502E20EF31E041F151F2091A4
:1025400086023091870240918802509189020E9450
:10255000CC1BE60EF71E081F191FE0927602F092C0
:102560007702009378021093790210925B0180EB5E
:1025700091E00E943C088091AA029091AB02A09148
:10258000AC02B091AD02853FEFE09E07E0E0AE0700
:10259000E0E0BE0708F4BDC0855F9F4FA040B0409B
:1025A00008F0A5C084ED91E00E94AD0820E23EE471
:1025B00040E951E0CA010197F1F721503040D1F7CD
:1025C00081E080935B0160E170E080E090E00E9438
:1025D000990E209186023091870240918802509195
:1025E00089020E94CC1B7B018C0180918202909118
:1025F0008302A0918402B0918502E80EF91E0A1FA1
:102600001B1FE0927E02F0927F02009380021093E3
:102610008102A090A202B090A302C090A402D09028
:10262000A50220917A0230917B0240917C02509168
:102630007D02C601B5010E94CC1B6093B20270936B
:10264000B3028093B4029093B502C601B501A8010C
:1026500097010E94CC1B7B018C016093B6027093A2
:10266000B7028093B8029093B90260938A02709384
:102670008B0280938C0290938D0260938E027093F4
:102680008F02809390029093910210929202109286
:102690009302109294021092950210929602109258
:1026A000970210929802109299022091AE023091F6
:1026B000AF024091B0025091B102C601B5010E9433
:1026C000CC1B6E0D7F1D801F911F60939E02709327
:1026D0009F028093A0029093A102E0929A02F0924E
:1026E0009B0200939C0210939D0281E0FCCD86EE3C
:1026F00091E00E94AD0882E080935B0120E533EC1D
:1027000040E951E0CA010197F1F721503040D1F77B
:10271000E9CD82EC91E00E94AD0820E533EC40E980
:1027200051E0CA010197F1F721503040D1F7DACDDD
:1027300064E270E080E090E00E94EB0E609386021D
:1027400070938702809388029093890280CE60E222
:1027500070E080E090E00E94EB0E7B018C0185CE62
:102760006FEF71E080E090E00E94990E6A3A710587
:102770008105910509F0D2CDDFCD6FEF71E080E0EA
:1027800090E00E94990E6A3A71058105910509F061
:102790009BCD8EE991E00E943C0820E23EE440E9B6
:1027A00051E0CA010197F1F721503040D1F75E01A5
:1027B0000894A11CB11CCC24DD2436ECE32E31E0BE
:1027C000F32E012D112D10925701109258011092E5
:1027D000590110925A01C801B7010E94990E6983EC
:1027E000C801B7016F5F7F4F8F4F9F4F0E94990EB7
:1027F0006A83C801B7016E5F7F4F8F4F9F4F0E9462
:10280000990E6B83C801B7016D5F7F4F8F4F9F4F4C
:102810000E94990E6C83F50180819181A281B38120
:1028200029E0880F991FAA1FBB1F2A95D1F7809313
:10283000570190935801A0935901B0935A0160E059
:1028400070E080E090E00E94990E6B3E09F1693ED5
:10285000F9F00894C11CD11C80E190E0A0E0B0E048
:10286000E80EF91E0A1F1B1F94E0C916D10409F0D7
:10287000AACF8CE891E00E94AD0820E533EC40E956
:1028800051E0CA010197F1F721503040D1F72ACD2C
:102890006EEF71E080E090E00E94990E6535710561
:1028A00081059105B1F66FEF71E080E090E00E9444
:1028B000990E6A3A71058105910559F63DCD2F9221
:1028C0003F924F925F926F927F928F929F92AF92C0
:1028D000BF92CF92DF92EF92FF920F931F93DF93FD
:1028E000CF93CDB7DEB76A970FB6F894DEBF0FBEB1
:1028F000CDBF5C012B011A01690138014701D901E3
:102900001C92F8011082D7011C92009759F080E0C8
:1029100090E020E2F501E80FF91F208301968B304B
:102920009105C1F710E060918E0270918F02809145
:10293000900290919102610F711D811D911D0E9465
:10294000990E112331F4603209F45EC0653E09F43A
:102950005BC0603208F458C0A114B10439F01830DB
:1029600008F06CC0F501E10FF11D6083113009F42E
:102970006AC01F5F1B30B8F260918E0270918F02A7
:102980008091900290919102655F7F4F8F4F9F4F92
:102990000E94990EE62EFF2463FD36C0F701E07118
:1029A000F070FA8FE98FE4FC6FC060918E02709135
:1029B0008F028091900290919102665F7F4F8F4FBE
:1029C0009F4F0E94990E162F60918E0270918F0278
:1029D0008091900290919102675F7F4F8F4F9F4F40
:1029E0000E94990E062F60918E0270918F02809145
:1029F000900290919102685F7F4F8F4F9F4F0E948E
:102A0000990E103509F410C180E06A960FB6F8945B
:102A1000DEBF0FBECDBFCF91DF911F910F91FF9011
:102A2000EF90DF90CF90BF90AF909F908F907F906E
:102A30006F905F904F903F902F900895F501E10FB8
:102A4000F11D618396CF60918E0270918F0280910B
:102A50009002909191020E94990E162F60918E0221
:102A600070918F0280919002909191026F5F7F4FE1
:102A70008F4F9F4F0E94990E1E3211F012E053CFDC
:102A80006E3211F612E04FCF60918E0270918F027C
:102A900080919002909191020E94990E162F609160
:102AA0008E0270918F0280919002909191026F5FDF
:102AB0007F4F8F4F9F4F0E94990E1E3209F416C10F
:102AC00081E0F6018083E2FE03C081E0D4018C93B3
:102AD000E1FE03C081E0F301808360918E0270917A
:102AE0008F0280919002909191026C5E7F4F8F4F88
:102AF0009F4F0E94340F7B018C0160918E02709178
:102B00008F028091900290919102665E7F4F8F4F6D
:102B10009F4F0E94340F8701FF24EE24E62AF72AF4
:102B2000082B192BD201ED92FD920D931C93139754
:102B300060918E0270918F0280919002909191022B
:102B4000645E7F4F8F4F9F4F0E94EB0EF1016083B9
:102B5000718382839383A114B10409F4D4C0898D55
:102B60009A8D892B09F45BC0F50114864E010894F7
:102B7000811C911CD401EAE8F2E088E101900D92F9
:102B80008150E1F7DD24C4010E945D0F882309F420
:102B9000B4C06D817E818F819885655F7F4F8F4F37
:102BA0009F4F0E94990E6F706F3009F0A6C06D8123
:102BB0007E818F8198850E94990EC62EF1E1DF16E5
:102BC00039F1EE24FF2487016D817E818F81988504
:102BD0006F5F7F4F8F4F9F4F6E0D7F1D801F911F27
:102BE0000E94990EF501ED0DF11D6083D39488E0EC
:102BF000E816F10401051105F1F082E090E0A0E093
:102C0000B0E0E80EF91E0A1F1B1F90E19D15E0F6CB
:102C1000E0E1F0E0EA0DFB1D108281E0F6CE8EE2ED
:102C2000D50118968C93A0CF013409F0EDCE643510
:102C300009F0EACE48CF90E19D1550F3EE24FF2431
:102C400087010BC082E090E0A0E0B0E0E80EF91E42
:102C50000A1F1B1F90E19D15D8F26D817E818F8127
:102C60009885625F7F4F8F4F9F4F6E0D7F1D801F36
:102C7000911F0E94990EF501ED0DF11D6083D39413
:102C8000AAE0EA16F10401051105E1F6B0E1BD156F
:102C900008F4BECF6D817E818F819885645E7F4F01
:102CA0008F4F9F4F0E94990EF501ED0DF11D60832E
:102CB0001D2D1F5F113109F4ABCF6D817E818F8196
:102CC0009885625E7F4F8F4F9F4F0E94990EF5014E
:102CD000E10FF11D6083D12ED394A1E1DA1609F43E
:102CE00097CFC6FE50CFED2DF0E094CF6E3209F0B5
:102CF000E7CE8FEFD6018C93E6CEB0E1BD1508F498
:102D000087CFDD2081F781E080CE2F923F924F92D6
:102D10005F926F927F928F929F92AF92BF92CF926B
:102D2000DF92EF92FF920F931F93DF93CF93CDB774
:102D3000DEB768970FB6F894DEBF0FBECDBF9C8B91
:102D40008B8B7E8B6D8BFC01118210828DE591E067
:102D5000BE016C5F7F4FAE01485F5F4F9E012F5FEA
:102D60003F4F8E010E5F1F4FF3E0EF2EF12CEC0E64
:102D7000FD1E0E945F14882309F4CDC088859985C3
:102D8000AA85BB850097A105B10509F4C4C022241A
:102D9000332421011A8A198A188A1F861E861D86E5
:102DA0001C860E94FC0DA090B202B090B302C090AD
:102DB000B402D090B502288539854A855B85D20159
:102DC000C1018A0D9B1DAC1DBD1D82179307A40771
:102DD000B50730F059016A01A218B308C408D50834
:102DE0006C817D818E819F816250704080409040D7
:102DF00020917A0230917B0240917C0250917D02B9
:102E00000E94CC1B9B01AC0160917602709177020D
:102E10008091780290917902620F731F841F951F31
:102E20002091A2023091A3024091A4025091A502E8
:102E30000E94CC1B3B014C01A114B104C104D1047C
:102E400009F465C0EE24FF24870117C0262F30E067
:102E50003E872D8731E03C870894E11CF11C011D61
:102E6000111DD801C701820D931DA41DB51DEA14C3
:102E7000FB040C051D0508F048C00E94FC0DC801AC
:102E8000B701660D771D881D991D0E94990E462F6A
:102E9000FC85FF23D9F28C85813041F18C8582300D
:102EA000D9F6EF85F8892D893E89E217F30709F4F1
:102EB00096C029893A892F5F3F4F3A8B298B8D85A0
:102EC0009E852817390740F2EF85F8892D893E89BC
:102ED000E217F30709F48BC02F8538892F5F3F4F26
:102EE000388B2F871E861D861C86B6CF488F1F8A7B
:102EF000ED85FE852F89388DE22BF32BFE87ED873C
:102F00001A8A198A32E03C87A7CF1C012D018091D3
:102F10005B018130D1F080E068960FB6F894DEBF97
:102F20000FBECDBFCF91DF911F910F91FF90EF901A
:102F3000DF90CF90BF90AF909F908F907F906F90D9
:102F40005F904F903F902F9008956091A2027091F2
:102F5000A3028091A4029091A50220918202309157
:102F6000830240918402509185020E94CC1B9B01F8
:102F7000AC016C817D818E819F81660F771F881FD8
:102F8000991F620F731F841F951F0E94340F9B01AE
:102F9000AC01611571058105910509F4BCCF8091E3
:102FA000AA029091AB02A091AC02B091AD02029640
:102FB000A11DB11D281739074A075B0708F0ABCFE1
:102FC00088859985AA85BB85281639064A065B0639
:102FD00008F0A1CF2C833D834E835F83E2CEE98945
:102FE000FA89BF0180E090E00E947E0E62CFEB89FB
:102FF000FC899183808381E08FCFEF92FF920F93C2
:103000001F93DF93CF93CDB7DEB768970FB6F894D1
:10301000DEBF0FBECDBF7E010894E11CF11CD701BD
:10302000EAE8F2E088E101900D928150E1F7C701F2
:103030000E945D0F882309F45FC010E06D817E81DE
:103040008F819885610F711D811D911D0E94990EC0
:10305000112321F4603259F3653E49F3603238F3AD
:10306000113009F456C01F5F1B3040F36D817E8123
:103070008F819885655F7F4F8F4F9F4F0E94990E7C
:1030800070E063FDD4CFCB0186709070892B79F608
:1030900064FD29C06D817E818F819885665F7F4F39
:1030A0008F4F9F4F0E94990E162F6D817E818F81C9
:1030B0009885675F7F4F8F4F9F4F0E94990E062F15
:1030C0006D817E818F819885685F7F4F8F4F9F4F85
:1030D0000E94990E103509F0AACF013409F0A7CF4C
:1030E000643509F0A4CFAAE8B2E0F70188E10190C5
:1030F0000D928150E1F781E068960FB6F894DEBF3B
:103100000FBECDBFCF91DF911F910F91FF90EF9038
:1031100008956D817E818F8198850E94990E162F6A
:103120006D817E818F8198856F5F7F4F8F4F9F4F1D
:103130000E94990E1E3211F012E080CF6E3209F01B
:1031400076CF12E07BCFEF92FF920F931F93DF9326
:10315000CF93CDB7DEB768970FB6F894DEBF0FBE3A
:10316000CDBF7E010894E11CF11CD701EAE8F2E032
:1031700088E101900D928150E1F7C7010E944F1044
:10318000882309F45FC010E06D817E818F8198856E
:10319000610F711D811D911D0E94990E112321F453
:1031A000603259F3653E49F3603238F3113009F467
:1031B00056C01F5F1B3040F36D817E818F819885E3
:1031C000655F7F4F8F4F9F4F0E94990E70E063FDA8
:1031D000D4CFCB0186709070892B79F664FD29C01D
:1031E0006D817E818F819885665F7F4F8F4F9F4F66
:1031F0000E94990E162F6D817E818F819885675F61
:103200007F4F8F4F9F4F0E94990E062F6D817E81B9
:103210008F819885685F7F4F8F4F9F4F0E94990ED7
:10322000103509F0AACF013409F0A7CF643509F0B1
:10323000A4CFAAE8B2E0F70188E101900D92815095
:10324000E1F781E068960FB6F894DEBF0FBECDBF00
:10325000CF91DF911F910F91FF90EF9008956D81B5
:103260007E818F8198850E94990E162F6D817E81B7
:103270008F8198856F5F7F4F8F4F9F4F0E94990E70
:103280001E3211F012E080CF6E3209F076CF12E0DC
:103290007BCF4F925F926F927F928F929F92AF926D
:1032A000BF92CF92DF92EF92FF920F931F93DF9323
:1032B000CF93CDB7DEB72B970FB6F894DEBF0FBE16
:1032C000CDBFE0908A02F0908B0200918C021091A9
:1032D0008D02E0928E02F0928F0200939002109382
:1032E00091028091920290919302A0919402B091E8
:1032F00095028093960290939702A0939802B093C0
:103300009902E0929A02F0929B0200939C02109321
:103310009D028091B6029091B702A091B802B0913F
:10332000B902E816F9060A071B0709F464C06091A0
:10333000A2027091A3028091A4029091A502209113
:103340007A0230917B0240917C0250917D020E9472
:10335000CC1BE60EF71E081F191FE0929E02F0928A
:103360009F020093A0021093A10204E0402E512C72
:103370004C0E5D1E18E0612E712C6C0E7D1EB2E0AD
:103380008B2E912C8C0E9D1EA3E0AA2EB12CAC0E80
:10339000BD1E6E010894C11CD11C80E090E0B201FA
:1033A000A3019601840175010E945F148823F1F046
:1033B0008A81882391F78B81882379F781E02B9686
:1033C0000FB6F894DEBF0FBECDBFCF91DF911F9136
:1033D0000F91FF90EF90DF90CF90BF90AF909F90B4
:1033E0008F907F906F905F904F9008950E94A318E8
:1033F000882399F6E4CF6091A2027091A302809194
:10340000A4029091A5022091AE023091AF024091AA
:10341000B0025091B1029BCF2F923F924F925F9298
:103420006F927F928F929F92AF92BF92CF92DF92D4
:10343000EF92FF920F931F931B012C0161157105F1
:103440008105910509F481C060907A0270907B0239
:1034500080907C0290907D02A090A202B090A30286
:10346000C090A402D090A50262507040804090406D
:10347000A40193010E94CC1B9B01AC0160917602D8
:10348000709177028091780290917902620F731F98
:10349000841F951FA60195010E94CC1B7B018C0106
:1034A00060938A0270938B0280938C0290938D02BA
:1034B000C601B501A40193010E94CC1BE60EF71EC4
:1034C000081F191FE0929E02F0929F020093A00233
:1034D0001093A102209292023092930240929402A1
:1034E0005092950220929602309297024092980252
:1034F0005092990280918A0290918B02A0918C0245
:10350000B0918D0280938E0290938F02A0939002CF
:10351000B093910280939A0290939B02A0939C0295
:10352000B0939D020E9449191F910F91FF90EF9057
:10353000DF90CF90BF90AF909F908F907F906F90D3
:103540005F904F903F902F900895E090B602F090DA
:10355000B7020091B8021091B902E0928A02F0928B
:103560008B0200938C0210938D026091A2027091E5
:10357000A3028091A4029091A5022091AE02309105
:10358000AF024091B0025091B1020E94CC1BE60EF6
:10359000F71E081F191FE0929E02F0929F020093EF
:1035A000A0021093A10296CFD9D080F09F3740F4AB
:1035B00091110EF4EBC060E070E080E89FE30895A5
:1035C00026F01B16611D711D811D7DC097C0ACD0FA
:1035D00088F09F5790F0B92F9927B751A0F0D1F0FC
:1035E000660F771F881F991F1AF0BA95C9F712C086
:1035F000B13081F0CAD0B1E00895C7C0672F782FED
:103600008827B85F39F0B93FCCF3869577956795F1
:10361000B395D9F73EF490958095709561957F4F5D
:103620008F4F9F4F0895E89409C097FB3EF4909503
:103630008095709561957F4F8F4F9F4F9923A9F08B
:10364000F92F96E9BB279395F6958795779567951A
:10365000B795F111F8CFFAF4BB0F11F460FF1BC05E
:103660006F5F7F4F8F4F9F4F16C0882311F096E9F1
:1036700011C0772321F09EE8872F762F05C066239F
:1036800071F096E8862F70E060E02AF09A95660F58
:10369000771F881FDAF7880F9695879597F9089511
:1036A0005DD080F09F3740F491110EF06FC060E064
:1036B00070E080E89FEB089526F41B16611D711DD4
:1036C000811D01C01BC0882371F4772321F098501D
:1036D000872B762F07C0662311F499270DC09051D0
:1036E000862B70E060E02AF09A95660F771F881F9E
:1036F000DAF7880F9695879597F908959F3F31F0EF
:10370000915020F4879577956795B795880F911D0F
:103710009695879597F9089557FD9058440F551F32
:1037200059F05F3F71F04795880F97FB991F61F043
:103730009F3F79F087950895121613061406551FBA
:10374000F2CF4695F1DF08C0161617061806991F26
:10375000F1CF86957105610508940895E5DFA0F025
:10376000BEE7B91788F4BB279F3860F41616B11D61
:10377000672F782F8827985FF7CF8695779567957D
:10378000B11D93959639C8F30895E894BB27662731
:103790007727CB0197F90895629FD001739FF001BD
:1037A000829FE00DF11D649FE00DF11D929FF00DD1
:1037B000839FF00D749FF00D659FF00D9927729F08
:1037C000B00DE11DF91F639FB00DE11DF91FBD0193
:1037D000CF0111240895A1E21A2EAA1BBB1BFD01E3
:1037E0000DC0AA1FBB1FEE1FFF1FA217B307E407E0
:1037F000F50720F0A21BB30BE40BF50B661F771F38
:10380000881F991F1A9469F7609570958095909517
:103810009B01AC01BD01CF010895AEE0B0E0E3E152
:10382000FCE10C94BC1E0D891E8986E08C831A83F2
:1038300009838FEF9FE79E838D839E01275E3F4F15
:10384000CE0101966F89788DA9010E94311C2F81CC
:103850003885020F131FF80110822E96E4E00C94B5
:10386000D81EABE0B0E0E7E3FCE10C94AE1E3C01F7
:103870002B015A01FC0117821682838181FD03C04E
:103880006FEF7FEFC6C19AE0892E1E010894211CBC
:10389000311CF3012381F20123FD859123FF8191E6
:1038A0002F01882309F4B2C1853239F423FD8591B3
:1038B00023FF81912F01853229F490E0B3010E940A
:1038C000241EE7CF982FFF24EE249924FFE1FF1553
:1038D000D0F09B3269F09C3228F4903259F0933248
:1038E00091F40EC09D3249F0903369F441E024C058
:1038F00052E0F52A84E0F82A28C098E0F92A25C089
:10390000E0E1FE2A22C0F7FC29C0892F80538A30CB
:1039100070F4F6FE05C0989C902C1124980E15C0EA
:10392000E89CE02C1124E80EF0E2FF2A0EC09E3243
:1039300029F4F6FC6BC140E4F42A07C09C3619F464
:1039400050E8F52A02C0983649F4F20123FD95911A
:1039500023FF91912F01992309F0B8CF892F855426
:10396000833018F08052833038F444E050E0A40EE5
:10397000B51E5FE359830FC0933631F0933779F06A
:10398000933509F056C020C0F5018081898342E05B
:1039900050E0A40EB51E610101E010E012C0F50177
:1039A000C080D180F6FC03C06FEF7FEF02C0692DAD
:1039B00070E042E050E0A40EB51EC6010E94191E40
:1039C0008C015FE7F52214C0F501C080D180F6FCC0
:1039D00003C06FEF7FEF02C0692D70E042E050E05E
:1039E000A40EB51EC6010E940E1E8C0150E8F52AD9
:1039F000F3FE07C01AC080E290E0B3010E94241ECB
:103A0000EA948E2D90E008171907A8F30EC0F6016E
:103A1000F7FC8591F7FE81916F0190E0B3010E9460
:103A2000241EE110EA94015010400115110579F7A8
:103A3000EAC0943611F0993669F5F7FE08C0F50131
:103A4000208131814281538184E090E00AC0F501F8
:103A5000808191819C01442737FD4095542F82E05D
:103A600090E0A80EB91E9FE6F92257FF09C05095B5
:103A70004095309521953F4F4F4F5F4FE0E8FE2A2C
:103A8000CA01B901A1012AE030E00E94501ED82EDF
:103A9000D21840C0953729F41F2D1F7E2AE030E050
:103AA0001DC01F2D197F9F3661F0903720F4983587
:103AB00009F0ACC00FC0903739F0983709F0A6C0B4
:103AC00004C028E030E00AC0106114FD146020E159
:103AD00030E004C014FD166020E132E017FF08C09A
:103AE000F501608171818281938144E050E008C0DA
:103AF000F50180819181BC0180E090E042E050E0DE
:103B0000A40EB51EA1010E94501ED82ED2188FE718
:103B1000F82EF122F6FE0BC05EEFF522D91438F430
:103B2000F4FE07C0F2FC05C08FEEF82202C01D2D86
:103B300001C0192DF4FE0DC0FE01ED0DF11D8081B7
:103B4000803319F499EEF92208C01F5FF2FE05C018
:103B500003C08F2D867809F01F5F0F2DF3FC14C072
:103B6000F0FE0FC01E1510F09D2C0BC09D2C9E0C5E
:103B7000911A1E2D06C080E290E0B3010E94241E1F
:103B80001F5F1E15C0F304C01E1510F4E11A01C01A
:103B9000EE2404FF0FC080E390E0B3010E94241ED6
:103BA00002FF1DC001FD03C088E790E00EC088E55C
:103BB00090E00BC0802F867891F001FF02C08BE26D
:103BC00001C080E2F7FC8DE290E0B3010E94241E68
:103BD00006C080E390E0B3010E94241E9A94D91499
:103BE000C0F3DA94F101ED0DF11D808190E0B30195
:103BF0000E94241EDD20A9F706C080E290E0B301F8
:103C00000E94241EEA94EE20C1F743CEF3016681A0
:103C10007781CB012B96E2E10C94CA1EFC01059042
:103C2000615070400110D8F7809590958E0F9F1FBE
:103C30000895FC016150704001900110D8F7809503
:103C400090958E0F9F1F08950F931F93CF93DF932F
:103C50008C01EB018B8181FF1BC082FF0DC02E8187
:103C60003F818C819D812817390764F4E881F981AF
:103C70000193F983E88306C0E885F985802F0995CB
:103C8000892B31F48E819F8101969F838E8302C0A0
:103C90000FEF1FEFC801DF91CF911F910F91089592
:103CA000FA01AA27283051F1203181F1E8946F936D
:103CB0006E7F6E5F7F4F8F4F9F4FAF4FB1E03ED013
:103CC000B4E03CD0670F781F891F9A1FA11D680FB1
:103CD000791F8A1F911DA11D6A0F711D811D911DE4
:103CE000A11D20D009F468943F912AE0269F112459
:103CF0003019305D3193DEF6CF010895462F4770BD
:103D0000405D4193B3E00FD0C9F7F6CF462F4F7017
:103D1000405D4A3318F0495D31FD4052419302D075
:103D2000A9F7EACFB4E0A69597958795779567951B
:103D3000BA95C9F700976105710508959B01AC011B
:103D40000A2E06945795479537952795BA95C9F742
:103D5000620F731F841F951FA01D08952F923F921D
:103D60004F925F926F927F928F929F92AF92BF928B
:103D7000CF92DF92EF92FF920F931F93CF93DF9337
:103D8000CDB7DEB7CA1BDB0B0FB6F894DEBF0FBE94
:103D9000CDBF09942A88398848885F846E847D84E1
:103DA0008C849B84AA84B984C884DF80EE80FD80E3
:103DB0000C811B81AA81B981CE0FD11D0FB6F89459
:0E3DC000DEBF0FBECDBFED010895F894FFCF1A
:103DCE00C1EBEEEA3A2575205B25755D00C1EBEE81
:103DDE00EA3A2575205B305D00C7E0E2E5F0F8E5D4
:103DEE00EDEE3A2025692025250025303578203D39
:103DFE00205B25303278202C20253032785D000073
:103E0E005B253032753A253035755D20F4E0E9EBEF
:103E1E00005B253032753A253035755D20EAE0F2CB
:103E2E002E00203E20C2EEF1EFF02E202078312021
:103E3E003C00203E20C2EEF1EFF02E202078322002
:103E4E003C00203E20C2EEF1EFF02E2020783420F0
:103E5E003C003E20D2E5F1F22020EFE0ECFFF2E84C
:103E6E00203C003E20534420E8EDF6E8E0EBE8E786
:103E7E002E203C0000256920CCC100000200FFFF6F
:023E8E00FFFF34
:00000001FF
